{
  "contractName": "LoanNFT",
  "abi": [
    {
      "inputs": [],
      "stateMutability": "nonpayable",
      "type": "constructor"
    },
    {
      "anonymous": false,
      "inputs": [
        {
          "indexed": true,
          "internalType": "address",
          "name": "owner",
          "type": "address"
        },
        {
          "indexed": true,
          "internalType": "address",
          "name": "approved",
          "type": "address"
        },
        {
          "indexed": true,
          "internalType": "uint256",
          "name": "tokenId",
          "type": "uint256"
        }
      ],
      "name": "Approval",
      "type": "event"
    },
    {
      "anonymous": false,
      "inputs": [
        {
          "indexed": true,
          "internalType": "address",
          "name": "owner",
          "type": "address"
        },
        {
          "indexed": true,
          "internalType": "address",
          "name": "operator",
          "type": "address"
        },
        {
          "indexed": false,
          "internalType": "bool",
          "name": "approved",
          "type": "bool"
        }
      ],
      "name": "ApprovalForAll",
      "type": "event"
    },
    {
      "anonymous": false,
      "inputs": [
        {
          "indexed": true,
          "internalType": "address",
          "name": "to",
          "type": "address"
        },
        {
          "indexed": false,
          "internalType": "uint256",
          "name": "tokenId",
          "type": "uint256"
        },
        {
          "indexed": false,
          "internalType": "uint16",
          "name": "amount",
          "type": "uint16"
        }
      ],
      "name": "LoanMinted",
      "type": "event"
    },
    {
      "anonymous": false,
      "inputs": [
        {
          "indexed": false,
          "internalType": "uint256",
          "name": "tokenId",
          "type": "uint256"
        },
        {
          "indexed": false,
          "internalType": "uint16",
          "name": "repaidAmount",
          "type": "uint16"
        }
      ],
      "name": "LoanRepaid",
      "type": "event"
    },
    {
      "anonymous": false,
      "inputs": [
        {
          "indexed": true,
          "internalType": "address",
          "name": "previousOwner",
          "type": "address"
        },
        {
          "indexed": true,
          "internalType": "address",
          "name": "newOwner",
          "type": "address"
        }
      ],
      "name": "OwnershipTransferred",
      "type": "event"
    },
    {
      "anonymous": false,
      "inputs": [
        {
          "indexed": true,
          "internalType": "address",
          "name": "from",
          "type": "address"
        },
        {
          "indexed": true,
          "internalType": "address",
          "name": "to",
          "type": "address"
        },
        {
          "indexed": true,
          "internalType": "uint256",
          "name": "tokenId",
          "type": "uint256"
        }
      ],
      "name": "Transfer",
      "type": "event"
    },
    {
      "inputs": [
        {
          "internalType": "address",
          "name": "owner",
          "type": "address"
        }
      ],
      "name": "balanceOf",
      "outputs": [
        {
          "internalType": "uint256",
          "name": "",
          "type": "uint256"
        }
      ],
      "stateMutability": "view",
      "type": "function",
      "constant": true
    },
    {
      "inputs": [
        {
          "internalType": "uint256",
          "name": "tokenId",
          "type": "uint256"
        }
      ],
      "name": "getApproved",
      "outputs": [
        {
          "internalType": "address",
          "name": "",
          "type": "address"
        }
      ],
      "stateMutability": "view",
      "type": "function",
      "constant": true
    },
    {
      "inputs": [
        {
          "internalType": "address",
          "name": "owner",
          "type": "address"
        },
        {
          "internalType": "address",
          "name": "operator",
          "type": "address"
        }
      ],
      "name": "isApprovedForAll",
      "outputs": [
        {
          "internalType": "bool",
          "name": "",
          "type": "bool"
        }
      ],
      "stateMutability": "view",
      "type": "function",
      "constant": true
    },
    {
      "inputs": [
        {
          "internalType": "uint256",
          "name": "",
          "type": "uint256"
        }
      ],
      "name": "loans",
      "outputs": [
        {
          "internalType": "uint16",
          "name": "amount",
          "type": "uint16"
        },
        {
          "internalType": "uint16",
          "name": "outstandingBalance",
          "type": "uint16"
        },
        {
          "internalType": "uint256",
          "name": "startDate",
          "type": "uint256"
        },
        {
          "internalType": "uint256",
          "name": "endDate",
          "type": "uint256"
        }
      ],
      "stateMutability": "view",
      "type": "function",
      "constant": true
    },
    {
      "inputs": [],
      "name": "maxLoanAmount",
      "outputs": [
        {
          "internalType": "uint16",
          "name": "",
          "type": "uint16"
        }
      ],
      "stateMutability": "view",
      "type": "function",
      "constant": true
    },
    {
      "inputs": [],
      "name": "name",
      "outputs": [
        {
          "internalType": "string",
          "name": "",
          "type": "string"
        }
      ],
      "stateMutability": "view",
      "type": "function",
      "constant": true
    },
    {
      "inputs": [
        {
          "internalType": "address",
          "name": "",
          "type": "address"
        }
      ],
      "name": "outstandingBorrowerLoans",
      "outputs": [
        {
          "internalType": "uint256",
          "name": "",
          "type": "uint256"
        }
      ],
      "stateMutability": "view",
      "type": "function",
      "constant": true
    },
    {
      "inputs": [],
      "name": "owner",
      "outputs": [
        {
          "internalType": "address",
          "name": "",
          "type": "address"
        }
      ],
      "stateMutability": "view",
      "type": "function",
      "constant": true
    },
    {
      "inputs": [
        {
          "internalType": "uint256",
          "name": "tokenId",
          "type": "uint256"
        }
      ],
      "name": "ownerOf",
      "outputs": [
        {
          "internalType": "address",
          "name": "",
          "type": "address"
        }
      ],
      "stateMutability": "view",
      "type": "function",
      "constant": true
    },
    {
      "inputs": [],
      "name": "renounceOwnership",
      "outputs": [],
      "stateMutability": "nonpayable",
      "type": "function"
    },
    {
      "inputs": [
        {
          "internalType": "bytes4",
          "name": "interfaceId",
          "type": "bytes4"
        }
      ],
      "name": "supportsInterface",
      "outputs": [
        {
          "internalType": "bool",
          "name": "",
          "type": "bool"
        }
      ],
      "stateMutability": "view",
      "type": "function",
      "constant": true
    },
    {
      "inputs": [],
      "name": "symbol",
      "outputs": [
        {
          "internalType": "string",
          "name": "",
          "type": "string"
        }
      ],
      "stateMutability": "view",
      "type": "function",
      "constant": true
    },
    {
      "inputs": [
        {
          "internalType": "uint256",
          "name": "index",
          "type": "uint256"
        }
      ],
      "name": "tokenByIndex",
      "outputs": [
        {
          "internalType": "uint256",
          "name": "",
          "type": "uint256"
        }
      ],
      "stateMutability": "view",
      "type": "function",
      "constant": true
    },
    {
      "inputs": [
        {
          "internalType": "address",
          "name": "owner",
          "type": "address"
        },
        {
          "internalType": "uint256",
          "name": "index",
          "type": "uint256"
        }
      ],
      "name": "tokenOfOwnerByIndex",
      "outputs": [
        {
          "internalType": "uint256",
          "name": "",
          "type": "uint256"
        }
      ],
      "stateMutability": "view",
      "type": "function",
      "constant": true
    },
    {
      "inputs": [
        {
          "internalType": "uint256",
          "name": "tokenId",
          "type": "uint256"
        }
      ],
      "name": "tokenURI",
      "outputs": [
        {
          "internalType": "string",
          "name": "",
          "type": "string"
        }
      ],
      "stateMutability": "view",
      "type": "function",
      "constant": true
    },
    {
      "inputs": [],
      "name": "totalSupply",
      "outputs": [
        {
          "internalType": "uint256",
          "name": "",
          "type": "uint256"
        }
      ],
      "stateMutability": "view",
      "type": "function",
      "constant": true
    },
    {
      "inputs": [
        {
          "internalType": "address",
          "name": "newOwner",
          "type": "address"
        }
      ],
      "name": "transferOwnership",
      "outputs": [],
      "stateMutability": "nonpayable",
      "type": "function"
    },
    {
      "inputs": [
        {
          "internalType": "address",
          "name": "borrower",
          "type": "address"
        }
      ],
      "name": "borrowerHasLoan",
      "outputs": [
        {
          "internalType": "bool",
          "name": "",
          "type": "bool"
        }
      ],
      "stateMutability": "view",
      "type": "function",
      "constant": true
    },
    {
      "inputs": [
        {
          "internalType": "uint16",
          "name": "amount",
          "type": "uint16"
        }
      ],
      "name": "setMaxLoanAmount",
      "outputs": [],
      "stateMutability": "nonpayable",
      "type": "function"
    },
    {
      "inputs": [
        {
          "internalType": "address",
          "name": "borrowerAddress",
          "type": "address"
        },
        {
          "internalType": "uint16",
          "name": "amount",
          "type": "uint16"
        }
      ],
      "name": "mintLoan",
      "outputs": [
        {
          "internalType": "uint256",
          "name": "",
          "type": "uint256"
        }
      ],
      "stateMutability": "nonpayable",
      "type": "function"
    },
    {
      "inputs": [
        {
          "internalType": "address",
          "name": "borrower",
          "type": "address"
        },
        {
          "internalType": "uint16",
          "name": "amount",
          "type": "uint16"
        }
      ],
      "name": "repayByBorrower",
      "outputs": [],
      "stateMutability": "nonpayable",
      "type": "function"
    },
    {
      "inputs": [
        {
          "internalType": "uint256",
          "name": "tokenId",
          "type": "uint256"
        }
      ],
      "name": "getLoanDetails",
      "outputs": [
        {
          "components": [
            {
              "internalType": "uint16",
              "name": "amount",
              "type": "uint16"
            },
            {
              "internalType": "uint16",
              "name": "outstandingBalance",
              "type": "uint16"
            },
            {
              "internalType": "uint256",
              "name": "startDate",
              "type": "uint256"
            },
            {
              "internalType": "uint256",
              "name": "endDate",
              "type": "uint256"
            }
          ],
          "internalType": "struct LoanNFT.Loan",
          "name": "",
          "type": "tuple"
        }
      ],
      "stateMutability": "view",
      "type": "function",
      "constant": true
    },
    {
      "inputs": [
        {
          "internalType": "address",
          "name": "",
          "type": "address"
        },
        {
          "internalType": "address",
          "name": "",
          "type": "address"
        },
        {
          "internalType": "uint256",
          "name": "",
          "type": "uint256"
        }
      ],
      "name": "transferFrom",
      "outputs": [],
      "stateMutability": "nonpayable",
      "type": "function"
    },
    {
      "inputs": [
        {
          "internalType": "address",
          "name": "",
          "type": "address"
        },
        {
          "internalType": "address",
          "name": "",
          "type": "address"
        },
        {
          "internalType": "uint256",
          "name": "",
          "type": "uint256"
        }
      ],
      "name": "safeTransferFrom",
      "outputs": [],
      "stateMutability": "nonpayable",
      "type": "function"
    },
    {
      "inputs": [
        {
          "internalType": "address",
          "name": "from",
          "type": "address"
        },
        {
          "internalType": "address",
          "name": "to",
          "type": "address"
        },
        {
          "internalType": "uint256",
          "name": "tokenId",
          "type": "uint256"
        },
        {
          "internalType": "bytes",
          "name": "data",
          "type": "bytes"
        }
      ],
      "name": "safeTransferFrom",
      "outputs": [],
      "stateMutability": "nonpayable",
      "type": "function"
    },
    {
      "inputs": [
        {
          "internalType": "address",
          "name": "",
          "type": "address"
        },
        {
          "internalType": "uint256",
          "name": "",
          "type": "uint256"
        }
      ],
      "name": "approve",
      "outputs": [],
      "stateMutability": "nonpayable",
      "type": "function"
    },
    {
      "inputs": [
        {
          "internalType": "address",
          "name": "",
          "type": "address"
        },
        {
          "internalType": "bool",
          "name": "",
          "type": "bool"
        }
      ],
      "name": "setApprovalForAll",
      "outputs": [],
      "stateMutability": "nonpayable",
      "type": "function"
    }
  ],
  "bytecode": "0x6080604052612710600e60006101000a81548161ffff021916908361ffff1602179055503480156200003057600080fd5b506040518060400160405280600781526020017f4c6f616e4e4654000000000000000000000000000000000000000000000000008152506040518060400160405280600481526020017f4c4e4654000000000000000000000000000000000000000000000000000000008152508160009080519060200190620000b5929190620001c5565b508060019080519060200190620000ce929190620001c5565b505050620000f1620000e5620000f760201b60201c565b620000ff60201b60201c565b620002da565b600033905090565b6000600a60009054906101000a900473ffffffffffffffffffffffffffffffffffffffff16905081600a60006101000a81548173ffffffffffffffffffffffffffffffffffffffff021916908373ffffffffffffffffffffffffffffffffffffffff1602179055508173ffffffffffffffffffffffffffffffffffffffff168173ffffffffffffffffffffffffffffffffffffffff167f8be0079c531659141344cd1fd0a4f28419497f9722a3daafe3b4186f6b6457e060405160405180910390a35050565b828054620001d39062000275565b90600052602060002090601f016020900481019282620001f7576000855562000243565b82601f106200021257805160ff191683800117855562000243565b8280016001018555821562000243579182015b828111156200024257825182559160200191906001019062000225565b5b50905062000252919062000256565b5090565b5b808211156200027157600081600090555060010162000257565b5090565b600060028204905060018216806200028e57607f821691505b60208210811415620002a557620002a4620002ab565b5b50919050565b7f4e487b7100000000000000000000000000000000000000000000000000000000600052602260045260246000fd5b613c2680620002ea6000396000f3fe608060405234801561001057600080fd5b50600436106101a95760003560e01c806370a08231116100f9578063a22cb46511610097578063c87b56dd11610071578063c87b56dd146104f2578063e1ec3c6814610522578063e985e9c514610555578063f2fde38b14610585576101a9565b8063a22cb4651461048a578063b88d4fde146104a6578063c434f108146104c2576101a9565b80638da5cb5b116100d35780638da5cb5b14610402578063906e52de146104205780639284cd4f1461045057806395d89b411461046c576101a9565b806370a08231146103aa578063715018a6146103da57806372f94365146103e4576101a9565b80632f745c59116101665780634f6ccce7116101405780634f6ccce7146102ea5780636352211e1461031a57806366877b8d1461034a5780636f8774381461037a576101a9565b80632f745c591461028257806342842e0e146102b25780634b996dea146102ce576101a9565b806301ffc9a7146101ae57806306fdde03146101de578063081812fc146101fc578063095ea7b31461022c57806318160ddd1461024857806323b872dd14610266575b600080fd5b6101c860048036038101906101c39190612b6e565b6105a1565b6040516101d59190613088565b60405180910390f35b6101e661061b565b6040516101f391906130a3565b60405180910390f35b61021660048036038101906102119190612be9565b6106ad565b6040516102239190613021565b60405180910390f35b61024660048036038101906102419190612b32565b6106f3565b005b61025061072e565b60405161025d91906133a0565b60405180910390f35b610280600480360381019061027b91906129f0565b61073b565b005b61029c60048036038101906102979190612b32565b610776565b6040516102a991906133a0565b60405180910390f35b6102cc60048036038101906102c791906129f0565b61081b565b005b6102e860048036038101906102e39190612af6565b610856565b005b61030460048036038101906102ff9190612be9565b6108f3565b60405161031191906133a0565b60405180910390f35b610334600480360381019061032f9190612be9565b61098a565b6040516103419190613021565b60405180910390f35b610364600480360381019061035f9190612be9565b610a11565b6040516103719190613325565b60405180910390f35b610394600480360381019061038f919061298b565b610a92565b6040516103a19190613088565b60405180910390f35b6103c460048036038101906103bf919061298b565b610ade565b6040516103d191906133a0565b60405180910390f35b6103e2610b96565b005b6103ec610baa565b6040516103f99190613340565b60405180910390f35b61040a610bbe565b6040516104179190613021565b60405180910390f35b61043a60048036038101906104359190612af6565b610be8565b60405161044791906133a0565b60405180910390f35b61046a60048036038101906104659190612bc0565b610e25565b005b610474610e94565b60405161048191906130a3565b60405180910390f35b6104a4600480360381019061049f9190612aba565b610f26565b005b6104c060048036038101906104bb9190612a3f565b610f61565b005b6104dc60048036038101906104d7919061298b565b610fc3565b6040516104e991906133a0565b60405180910390f35b61050c60048036038101906105079190612be9565b610fdb565b60405161051991906130a3565b60405180910390f35b61053c60048036038101906105379190612be9565b611043565b60405161054c949392919061335b565b60405180910390f35b61056f600480360381019061056a91906129b4565b61108f565b60405161057c9190613088565b60405180910390f35b61059f600480360381019061059a919061298b565b611123565b005b60007f780e9d63000000000000000000000000000000000000000000000000000000007bffffffffffffffffffffffffffffffffffffffffffffffffffffffff1916827bffffffffffffffffffffffffffffffffffffffffffffffffffffffff191614806106145750610613826111a7565b5b9050919050565b60606000805461062a906135a9565b80601f0160208091040260200160405190810160405280929190818152602001828054610656906135a9565b80156106a35780601f10610678576101008083540402835291602001916106a3565b820191906000526020600020905b81548152906001019060200180831161068657829003601f168201915b5050505050905090565b60006106b882611289565b6004600083815260200190815260200160002060009054906101000a900473ffffffffffffffffffffffffffffffffffffffff169050919050565b6040517f08c379a0000000000000000000000000000000000000000000000000000000008152600401610725906131c5565b60405180910390fd5b6000600880549050905090565b6040517f08c379a000000000000000000000000000000000000000000000000000000000815260040161076d906131c5565b60405180910390fd5b600061078183610ade565b82106107c2576040517f08c379a00000000000000000000000000000000000000000000000000000000081526004016107b990613105565b60405180910390fd5b600660008473ffffffffffffffffffffffffffffffffffffffff1673ffffffffffffffffffffffffffffffffffffffff168152602001908152602001600020600083815260200190815260200160002054905092915050565b6040517f08c379a000000000000000000000000000000000000000000000000000000000815260040161084d906131c5565b60405180910390fd5b61085e6112d4565b61086782610a92565b6108a6576040517f08c379a000000000000000000000000000000000000000000000000000000000815260040161089d906130c5565b60405180910390fd5b6108ef600d60008473ffffffffffffffffffffffffffffffffffffffff1673ffffffffffffffffffffffffffffffffffffffff1681526020019081526020016000205482611352565b5050565b60006108fd61072e565b821061093e576040517f08c379a0000000000000000000000000000000000000000000000000000000008152600401610935906132a5565b60405180910390fd5b60088281548110610978577f4e487b7100000000000000000000000000000000000000000000000000000000600052603260045260246000fd5b90600052602060002001549050919050565b600080610996836114fb565b9050600073ffffffffffffffffffffffffffffffffffffffff168173ffffffffffffffffffffffffffffffffffffffff161415610a08576040517f08c379a00000000000000000000000000000000000000000000000000000000081526004016109ff90613265565b60405180910390fd5b80915050919050565b610a19612846565b600c60008381526020019081526020016000206040518060800160405290816000820160009054906101000a900461ffff1661ffff1661ffff1681526020016000820160029054906101000a900461ffff1661ffff1661ffff168152602001600182015481526020016002820154815250509050919050565b600080600d60008473ffffffffffffffffffffffffffffffffffffffff1673ffffffffffffffffffffffffffffffffffffffff1681526020019081526020016000205414159050919050565b60008073ffffffffffffffffffffffffffffffffffffffff168273ffffffffffffffffffffffffffffffffffffffff161415610b4f576040517f08c379a0000000000000000000000000000000000000000000000000000000008152600401610b46906131e5565b60405180910390fd5b600360008373ffffffffffffffffffffffffffffffffffffffff1673ffffffffffffffffffffffffffffffffffffffff168152602001908152602001600020549050919050565b610b9e6112d4565b610ba86000611538565b565b600e60009054906101000a900461ffff1681565b6000600a60009054906101000a900473ffffffffffffffffffffffffffffffffffffffff16905090565b6000610bf26112d4565b610c306040518060400160405280601781526020017f617474656d7074696e6720746f206d696e74206c6f616e0000000000000000008152506115fe565b60008261ffff1611610c77576040517f08c379a0000000000000000000000000000000000000000000000000000000008152600401610c6e90613205565b60405180910390fd5b600e60009054906101000a900461ffff1661ffff168261ffff161115610cd2576040517f08c379a0000000000000000000000000000000000000000000000000000000008152600401610cc9906132e5565b60405180910390fd5b610cdb83610a92565b15610d1b576040517f08c379a0000000000000000000000000000000000000000000000000000000008152600401610d1290613305565b60405180910390fd5b610d25600b611697565b6000610d31600b6116ad565b9050610d3d84826116bb565b60405180608001604052808461ffff1681526020018461ffff1681526020014281526020016000815250600c600083815260200190815260200160002060008201518160000160006101000a81548161ffff021916908361ffff16021790555060208201518160000160026101000a81548161ffff021916908361ffff160217905550604082015181600101556060820151816002015590505080600d60008673ffffffffffffffffffffffffffffffffffffffff1673ffffffffffffffffffffffffffffffffffffffff168152602001908152602001600020819055508091505092915050565b610e2d6112d4565b60008161ffff1611610e74576040517f08c379a0000000000000000000000000000000000000000000000000000000008152600401610e6b90613205565b60405180910390fd5b80600e60006101000a81548161ffff021916908361ffff16021790555050565b606060018054610ea3906135a9565b80601f0160208091040260200160405190810160405280929190818152602001828054610ecf906135a9565b8015610f1c5780601f10610ef157610100808354040283529160200191610f1c565b820191906000526020600020905b815481529060010190602001808311610eff57829003601f168201915b5050505050905090565b6040517f08c379a0000000000000000000000000000000000000000000000000000000008152600401610f58906131c5565b60405180910390fd5b610f72610f6c6116d9565b836116e1565b610fb1576040517f08c379a0000000000000000000000000000000000000000000000000000000008152600401610fa8906130e5565b60405180910390fd5b610fbd84848484611776565b50505050565b600d6020528060005260406000206000915090505481565b6060610fe682611289565b6000610ff06117d2565b90506000815111611010576040518060200160405280600081525061103b565b8061101a846117e9565b60405160200161102b929190612ffd565b6040516020818303038152906040525b915050919050565b600c6020528060005260406000206000915090508060000160009054906101000a900461ffff16908060000160029054906101000a900461ffff16908060010154908060020154905084565b6000600560008473ffffffffffffffffffffffffffffffffffffffff1673ffffffffffffffffffffffffffffffffffffffff16815260200190815260200160002060008373ffffffffffffffffffffffffffffffffffffffff1673ffffffffffffffffffffffffffffffffffffffff16815260200190815260200160002060009054906101000a900460ff16905092915050565b61112b6112d4565b600073ffffffffffffffffffffffffffffffffffffffff168173ffffffffffffffffffffffffffffffffffffffff16141561119b576040517f08c379a000000000000000000000000000000000000000000000000000000000815260040161119290613145565b60405180910390fd5b6111a481611538565b50565b60007f80ac58cd000000000000000000000000000000000000000000000000000000007bffffffffffffffffffffffffffffffffffffffffffffffffffffffff1916827bffffffffffffffffffffffffffffffffffffffffffffffffffffffff1916148061127257507f5b5e139f000000000000000000000000000000000000000000000000000000007bffffffffffffffffffffffffffffffffffffffffffffffffffffffff1916827bffffffffffffffffffffffffffffffffffffffffffffffffffffffff1916145b8061128257506112818261190d565b5b9050919050565b61129281611977565b6112d1576040517f08c379a00000000000000000000000000000000000000000000000000000000081526004016112c890613265565b60405180910390fd5b50565b6112dc6116d9565b73ffffffffffffffffffffffffffffffffffffffff166112fa610bbe565b73ffffffffffffffffffffffffffffffffffffffff1614611350576040517f08c379a000000000000000000000000000000000000000000000000000000000815260040161134790613245565b60405180910390fd5b565b6000600c6000848152602001908152602001600020905060008160000160029054906101000a900461ffff1661ffff16116113c2576040517f08c379a00000000000000000000000000000000000000000000000000000000081526004016113b990613285565b60405180910390fd5b8161ffff168160000160029054906101000a900461ffff1661ffff1610156113fa578060000160029054906101000a900461ffff1691505b818160000160028282829054906101000a900461ffff1661141b919061347d565b92506101000a81548161ffff021916908361ffff16021790555060008160000160029054906101000a900461ffff1661ffff1614156114f6574281600201819055506000600d600061146c8661098a565b73ffffffffffffffffffffffffffffffffffffffff1673ffffffffffffffffffffffffffffffffffffffff168152602001908152602001600020819055507fd8347dfcdb4ad4b065b57dbe6c0aa70f7760ce003064e45be4c6dde95722edba838260000160009054906101000a900461ffff166040516114ed9291906133bb565b60405180910390a15b505050565b60006002600083815260200190815260200160002060009054906101000a900473ffffffffffffffffffffffffffffffffffffffff169050919050565b6000600a60009054906101000a900473ffffffffffffffffffffffffffffffffffffffff16905081600a60006101000a81548173ffffffffffffffffffffffffffffffffffffffff021916908373ffffffffffffffffffffffffffffffffffffffff1602179055508173ffffffffffffffffffffffffffffffffffffffff168173ffffffffffffffffffffffffffffffffffffffff167f8be0079c531659141344cd1fd0a4f28419497f9722a3daafe3b4186f6b6457e060405160405180910390a35050565b6116948160405160240161161291906130a3565b6040516020818303038152906040527f41304fac000000000000000000000000000000000000000000000000000000007bffffffffffffffffffffffffffffffffffffffffffffffffffffffff19166020820180517bffffffffffffffffffffffffffffffffffffffffffffffffffffffff83818316178352505050506119b8565b50565b6001816000016000828254019250508190555050565b600081600001549050919050565b6116d58282604051806020016040528060008152506119d2565b5050565b600033905090565b6000806116ed8361098a565b90508073ffffffffffffffffffffffffffffffffffffffff168473ffffffffffffffffffffffffffffffffffffffff16148061172f575061172e818561108f565b5b8061176d57508373ffffffffffffffffffffffffffffffffffffffff16611755846106ad565b73ffffffffffffffffffffffffffffffffffffffff16145b91505092915050565b611781848484611a2d565b61178d84848484611d27565b6117cc576040517f08c379a00000000000000000000000000000000000000000000000000000000081526004016117c390613125565b60405180910390fd5b50505050565b606060405180602001604052806000815250905090565b6060600060016117f884611ebe565b01905060008167ffffffffffffffff81111561183d577f4e487b7100000000000000000000000000000000000000000000000000000000600052604160045260246000fd5b6040519080825280601f01601f19166020018201604052801561186f5781602001600182028036833780820191505090505b509050600082602001820190505b600115611902578080600190039150507f3031323334353637383961626364656600000000000000000000000000000000600a86061a8153600a85816118ec577f4e487b7100000000000000000000000000000000000000000000000000000000600052601260045260246000fd5b04945060008514156118fd57611902565b61187d565b819350505050919050565b60007f01ffc9a7000000000000000000000000000000000000000000000000000000007bffffffffffffffffffffffffffffffffffffffffffffffffffffffff1916827bffffffffffffffffffffffffffffffffffffffffffffffffffffffff1916149050919050565b60008073ffffffffffffffffffffffffffffffffffffffff16611999836114fb565b73ffffffffffffffffffffffffffffffffffffffff1614159050919050565b6119cf816119c76120f5612116565b63ffffffff16565b50565b6119dc8383612121565b6119e96000848484611d27565b611a28576040517f08c379a0000000000000000000000000000000000000000000000000000000008152600401611a1f90613125565b60405180910390fd5b505050565b8273ffffffffffffffffffffffffffffffffffffffff16611a4d8261098a565b73ffffffffffffffffffffffffffffffffffffffff1614611aa3576040517f08c379a0000000000000000000000000000000000000000000000000000000008152600401611a9a90613165565b60405180910390fd5b600073ffffffffffffffffffffffffffffffffffffffff168273ffffffffffffffffffffffffffffffffffffffff161415611b13576040517f08c379a0000000000000000000000000000000000000000000000000000000008152600401611b0a906131a5565b60405180910390fd5b611b20838383600161233f565b8273ffffffffffffffffffffffffffffffffffffffff16611b408261098a565b73ffffffffffffffffffffffffffffffffffffffff1614611b96576040517f08c379a0000000000000000000000000000000000000000000000000000000008152600401611b8d90613165565b60405180910390fd5b6004600082815260200190815260200160002060006101000a81549073ffffffffffffffffffffffffffffffffffffffff02191690556001600360008573ffffffffffffffffffffffffffffffffffffffff1673ffffffffffffffffffffffffffffffffffffffff168152602001908152602001600020600082825403925050819055506001600360008473ffffffffffffffffffffffffffffffffffffffff1673ffffffffffffffffffffffffffffffffffffffff16815260200190815260200160002060008282540192505081905550816002600083815260200190815260200160002060006101000a81548173ffffffffffffffffffffffffffffffffffffffff021916908373ffffffffffffffffffffffffffffffffffffffff160217905550808273ffffffffffffffffffffffffffffffffffffffff168473ffffffffffffffffffffffffffffffffffffffff167fddf252ad1be2c89b69c2b068fc378daa952ba7f163c4a11628f55a4df523b3ef60405160405180910390a4611d22838383600161249f565b505050565b6000611d488473ffffffffffffffffffffffffffffffffffffffff166124a5565b15611eb1578373ffffffffffffffffffffffffffffffffffffffff1663150b7a02611d716116d9565b8786866040518563ffffffff1660e01b8152600401611d93949392919061303c565b602060405180830381600087803b158015611dad57600080fd5b505af1925050508015611dde57506040513d601f19601f82011682018060405250810190611ddb9190612b97565b60015b611e61573d8060008114611e0e576040519150601f19603f3d011682016040523d82523d6000602084013e611e13565b606091505b50600081511415611e59576040517f08c379a0000000000000000000000000000000000000000000000000000000008152600401611e5090613125565b60405180910390fd5b805181602001fd5b63150b7a0260e01b7bffffffffffffffffffffffffffffffffffffffffffffffffffffffff1916817bffffffffffffffffffffffffffffffffffffffffffffffffffffffff191614915050611eb6565b600190505b949350505050565b600080600090507a184f03e93ff9f4daa797ed6e38ed64bf6a1f0100000000000000008310611f42577a184f03e93ff9f4daa797ed6e38ed64bf6a1f0100000000000000008381611f38577f4e487b7100000000000000000000000000000000000000000000000000000000600052601260045260246000fd5b0492506040810190505b6d04ee2d6d415b85acef81000000008310611fa5576d04ee2d6d415b85acef81000000008381611f9b577f4e487b7100000000000000000000000000000000000000000000000000000000600052601260045260246000fd5b0492506020810190505b662386f26fc100008310611ffa57662386f26fc100008381611ff0577f4e487b7100000000000000000000000000000000000000000000000000000000600052601260045260246000fd5b0492506010810190505b6305f5e1008310612049576305f5e100838161203f577f4e487b7100000000000000000000000000000000000000000000000000000000600052601260045260246000fd5b0492506008810190505b612710831061209457612710838161208a577f4e487b7100000000000000000000000000000000000000000000000000000000600052601260045260246000fd5b0492506004810190505b606483106120dd57606483816120d3577f4e487b7100000000000000000000000000000000000000000000000000000000600052601260045260246000fd5b0492506002810190505b600a83106120ec576001810190505b80915050919050565b60006a636f6e736f6c652e6c6f679050600080835160208501845afa505050565b612876819050919050565b600073ffffffffffffffffffffffffffffffffffffffff168273ffffffffffffffffffffffffffffffffffffffff161415612191576040517f08c379a000000000000000000000000000000000000000000000000000000000815260040161218890613225565b60405180910390fd5b61219a81611977565b156121da576040517f08c379a00000000000000000000000000000000000000000000000000000000081526004016121d190613185565b60405180910390fd5b6121e860008383600161233f565b6121f181611977565b15612231576040517f08c379a000000000000000000000000000000000000000000000000000000000815260040161222890613185565b60405180910390fd5b6001600360008473ffffffffffffffffffffffffffffffffffffffff1673ffffffffffffffffffffffffffffffffffffffff16815260200190815260200160002060008282540192505081905550816002600083815260200190815260200160002060006101000a81548173ffffffffffffffffffffffffffffffffffffffff021916908373ffffffffffffffffffffffffffffffffffffffff160217905550808273ffffffffffffffffffffffffffffffffffffffff16600073ffffffffffffffffffffffffffffffffffffffff167fddf252ad1be2c89b69c2b068fc378daa952ba7f163c4a11628f55a4df523b3ef60405160405180910390a461233b60008383600161249f565b5050565b61234b848484846124c8565b600181111561238f576040517f08c379a0000000000000000000000000000000000000000000000000000000008152600401612386906132c5565b60405180910390fd5b6000829050600073ffffffffffffffffffffffffffffffffffffffff168573ffffffffffffffffffffffffffffffffffffffff1614156123d7576123d2816124ce565b612416565b8373ffffffffffffffffffffffffffffffffffffffff168573ffffffffffffffffffffffffffffffffffffffff1614612415576124148582612517565b5b5b600073ffffffffffffffffffffffffffffffffffffffff168473ffffffffffffffffffffffffffffffffffffffff1614156124595761245481612684565b612498565b8473ffffffffffffffffffffffffffffffffffffffff168473ffffffffffffffffffffffffffffffffffffffff16146124975761249684826127c7565b5b5b5050505050565b50505050565b6000808273ffffffffffffffffffffffffffffffffffffffff163b119050919050565b50505050565b6008805490506009600083815260200190815260200160002081905550600881908060018154018082558091505060019003906000526020600020016000909190919091505550565b6000600161252484610ade565b61252e91906134b1565b9050600060076000848152602001908152602001600020549050818114612613576000600660008673ffffffffffffffffffffffffffffffffffffffff1673ffffffffffffffffffffffffffffffffffffffff168152602001908152602001600020600084815260200190815260200160002054905080600660008773ffffffffffffffffffffffffffffffffffffffff1673ffffffffffffffffffffffffffffffffffffffff168152602001908152602001600020600084815260200190815260200160002081905550816007600083815260200190815260200160002081905550505b6007600084815260200190815260200160002060009055600660008573ffffffffffffffffffffffffffffffffffffffff1673ffffffffffffffffffffffffffffffffffffffff16815260200190815260200160002060008381526020019081526020016000206000905550505050565b6000600160088054905061269891906134b1565b90506000600960008481526020019081526020016000205490506000600883815481106126ee577f4e487b7100000000000000000000000000000000000000000000000000000000600052603260045260246000fd5b906000526020600020015490508060088381548110612736577f4e487b7100000000000000000000000000000000000000000000000000000000600052603260045260246000fd5b9060005260206000200181905550816009600083815260200190815260200160002081905550600960008581526020019081526020016000206000905560088054806127ab577f4e487b7100000000000000000000000000000000000000000000000000000000600052603160045260246000fd5b6001900381819060005260206000200160009055905550505050565b60006127d283610ade565b905081600660008573ffffffffffffffffffffffffffffffffffffffff1673ffffffffffffffffffffffffffffffffffffffff168152602001908152602001600020600083815260200190815260200160002081905550806007600084815260200190815260200160002081905550505050565b6040518060800160405280600061ffff168152602001600061ffff16815260200160008152602001600081525090565b7f4e487b7100000000000000000000000000000000000000000000000000000000600052605160045260246000fd5b60006128b86128b384613409565b6133e4565b9050828152602081018484840111156128d057600080fd5b6128db848285613567565b509392505050565b6000813590506128f281613b7d565b92915050565b60008135905061290781613b94565b92915050565b60008135905061291c81613bab565b92915050565b60008151905061293181613bab565b92915050565b600082601f83011261294857600080fd5b81356129588482602086016128a5565b91505092915050565b60008135905061297081613bc2565b92915050565b60008135905061298581613bd9565b92915050565b60006020828403121561299d57600080fd5b60006129ab848285016128e3565b91505092915050565b600080604083850312156129c757600080fd5b60006129d5858286016128e3565b92505060206129e6858286016128e3565b9150509250929050565b600080600060608486031215612a0557600080fd5b6000612a13868287016128e3565b9350506020612a24868287016128e3565b9250506040612a3586828701612976565b9150509250925092565b60008060008060808587031215612a5557600080fd5b6000612a63878288016128e3565b9450506020612a74878288016128e3565b9350506040612a8587828801612976565b925050606085013567ffffffffffffffff811115612aa257600080fd5b612aae87828801612937565b91505092959194509250565b60008060408385031215612acd57600080fd5b6000612adb858286016128e3565b9250506020612aec858286016128f8565b9150509250929050565b60008060408385031215612b0957600080fd5b6000612b17858286016128e3565b9250506020612b2885828601612961565b9150509250929050565b60008060408385031215612b4557600080fd5b6000612b53858286016128e3565b9250506020612b6485828601612976565b9150509250929050565b600060208284031215612b8057600080fd5b6000612b8e8482850161290d565b91505092915050565b600060208284031215612ba957600080fd5b6000612bb784828501612922565b91505092915050565b600060208284031215612bd257600080fd5b6000612be084828501612961565b91505092915050565b600060208284031215612bfb57600080fd5b6000612c0984828501612976565b91505092915050565b612c1b816134e5565b82525050565b612c2a816134f7565b82525050565b6000612c3b8261343a565b612c458185613450565b9350612c55818560208601613576565b612c5e81613699565b840191505092915050565b6000612c7482613445565b612c7e8185613461565b9350612c8e818560208601613576565b612c9781613699565b840191505092915050565b6000612cad82613445565b612cb78185613472565b9350612cc7818560208601613576565b80840191505092915050565b6000612ce0602b83613461565b9150612ceb826136aa565b604082019050919050565b6000612d03602d83613461565b9150612d0e826136f9565b604082019050919050565b6000612d26602b83613461565b9150612d3182613748565b604082019050919050565b6000612d49603283613461565b9150612d5482613797565b604082019050919050565b6000612d6c602683613461565b9150612d77826137e6565b604082019050919050565b6000612d8f602583613461565b9150612d9a82613835565b604082019050919050565b6000612db2601c83613461565b9150612dbd82613884565b602082019050919050565b6000612dd5602483613461565b9150612de0826138ad565b604082019050919050565b6000612df8601d83613461565b9150612e03826138fc565b602082019050919050565b6000612e1b602983613461565b9150612e2682613925565b604082019050919050565b6000612e3e601f83613461565b9150612e4982613974565b602082019050919050565b6000612e61602083613461565b9150612e6c8261399d565b602082019050919050565b6000612e84602083613461565b9150612e8f826139c6565b602082019050919050565b6000612ea7601883613461565b9150612eb2826139ef565b602082019050919050565b6000612eca601983613461565b9150612ed582613a18565b602082019050919050565b6000612eed602c83613461565b9150612ef882613a41565b604082019050919050565b6000612f10603583613461565b9150612f1b82613a90565b604082019050919050565b6000612f33602483613461565b9150612f3e82613adf565b604082019050919050565b6000612f56602983613461565b9150612f6182613b2e565b604082019050919050565b608082016000820151612f826000850182612fc1565b506020820151612f956020850182612fc1565b506040820151612fa86040850182612fdf565b506060820151612fbb6060850182612fdf565b50505050565b612fca8161352f565b82525050565b612fd98161352f565b82525050565b612fe88161355d565b82525050565b612ff78161355d565b82525050565b60006130098285612ca2565b91506130158284612ca2565b91508190509392505050565b60006020820190506130366000830184612c12565b92915050565b60006080820190506130516000830187612c12565b61305e6020830186612c12565b61306b6040830185612fee565b818103606083015261307d8184612c30565b905095945050505050565b600060208201905061309d6000830184612c21565b92915050565b600060208201905081810360008301526130bd8184612c69565b905092915050565b600060208201905081810360008301526130de81612cd3565b9050919050565b600060208201905081810360008301526130fe81612cf6565b9050919050565b6000602082019050818103600083015261311e81612d19565b9050919050565b6000602082019050818103600083015261313e81612d3c565b9050919050565b6000602082019050818103600083015261315e81612d5f565b9050919050565b6000602082019050818103600083015261317e81612d82565b9050919050565b6000602082019050818103600083015261319e81612da5565b9050919050565b600060208201905081810360008301526131be81612dc8565b9050919050565b600060208201905081810360008301526131de81612deb565b9050919050565b600060208201905081810360008301526131fe81612e0e565b9050919050565b6000602082019050818103600083015261321e81612e31565b9050919050565b6000602082019050818103600083015261323e81612e54565b9050919050565b6000602082019050818103600083015261325e81612e77565b9050919050565b6000602082019050818103600083015261327e81612e9a565b9050919050565b6000602082019050818103600083015261329e81612ebd565b9050919050565b600060208201905081810360008301526132be81612ee0565b9050919050565b600060208201905081810360008301526132de81612f03565b9050919050565b600060208201905081810360008301526132fe81612f26565b9050919050565b6000602082019050818103600083015261331e81612f49565b9050919050565b600060808201905061333a6000830184612f6c565b92915050565b60006020820190506133556000830184612fd0565b92915050565b60006080820190506133706000830187612fd0565b61337d6020830186612fd0565b61338a6040830185612fee565b6133976060830184612fee565b95945050505050565b60006020820190506133b56000830184612fee565b92915050565b60006040820190506133d06000830185612fee565b6133dd6020830184612fd0565b9392505050565b60006133ee6133ff565b90506133fa82826135db565b919050565b6000604051905090565b600067ffffffffffffffff8211156134245761342361366a565b5b61342d82613699565b9050602081019050919050565b600081519050919050565b600081519050919050565b600082825260208201905092915050565b600082825260208201905092915050565b600081905092915050565b60006134888261352f565b91506134938361352f565b9250828210156134a6576134a561360c565b5b828203905092915050565b60006134bc8261355d565b91506134c78361355d565b9250828210156134da576134d961360c565b5b828203905092915050565b60006134f08261353d565b9050919050565b60008115159050919050565b60007fffffffff0000000000000000000000000000000000000000000000000000000082169050919050565b600061ffff82169050919050565b600073ffffffffffffffffffffffffffffffffffffffff82169050919050565b6000819050919050565b82818337600083830152505050565b60005b83811015613594578082015181840152602081019050613579565b838111156135a3576000848401525b50505050565b600060028204905060018216806135c157607f821691505b602082108114156135d5576135d461363b565b5b50919050565b6135e482613699565b810181811067ffffffffffffffff821117156136035761360261366a565b5b80604052505050565b7f4e487b7100000000000000000000000000000000000000000000000000000000600052601160045260246000fd5b7f4e487b7100000000000000000000000000000000000000000000000000000000600052602260045260246000fd5b7f4e487b7100000000000000000000000000000000000000000000000000000000600052604160045260246000fd5b6000601f19601f8301169050919050565b7f426f72726f77657220646f6573206e6f74206861766520616e206f757473746160008201527f6e64696e67206c6f616e21000000000000000000000000000000000000000000602082015250565b7f4552433732313a2063616c6c6572206973206e6f7420746f6b656e206f776e6560008201527f72206f7220617070726f76656400000000000000000000000000000000000000602082015250565b7f455243373231456e756d657261626c653a206f776e657220696e646578206f7560008201527f74206f6620626f756e6473000000000000000000000000000000000000000000602082015250565b7f4552433732313a207472616e7366657220746f206e6f6e20455243373231526560008201527f63656976657220696d706c656d656e7465720000000000000000000000000000602082015250565b7f4f776e61626c653a206e6577206f776e657220697320746865207a65726f206160008201527f6464726573730000000000000000000000000000000000000000000000000000602082015250565b7f4552433732313a207472616e736665722066726f6d20696e636f72726563742060008201527f6f776e6572000000000000000000000000000000000000000000000000000000602082015250565b7f4552433732313a20746f6b656e20616c7265616479206d696e74656400000000600082015250565b7f4552433732313a207472616e7366657220746f20746865207a65726f2061646460008201527f7265737300000000000000000000000000000000000000000000000000000000602082015250565b7f54686973204e4654206973206e6f6e2d7472616e736665727261626c65000000600082015250565b7f4552433732313a2061646472657373207a65726f206973206e6f74206120766160008201527f6c6964206f776e65720000000000000000000000000000000000000000000000602082015250565b7f416d6f756e742073686f756c642062652067726561746572207468616e203000600082015250565b7f4552433732313a206d696e7420746f20746865207a65726f2061646472657373600082015250565b7f4f776e61626c653a2063616c6c6572206973206e6f7420746865206f776e6572600082015250565b7f4552433732313a20696e76616c696420746f6b656e2049440000000000000000600082015250565b7f4c6f616e20697320616c72656164792070616964206f66662e00000000000000600082015250565b7f455243373231456e756d657261626c653a20676c6f62616c20696e646578206f60008201527f7574206f6620626f756e64730000000000000000000000000000000000000000602082015250565b7f455243373231456e756d657261626c653a20636f6e736563757469766520747260008201527f616e7366657273206e6f7420737570706f727465640000000000000000000000602082015250565b7f4c6f616e20616d6f756e742065786365656473206d6178206c6f616e20616d6f60008201527f756e742e00000000000000000000000000000000000000000000000000000000602082015250565b7f426f72726f77657220616c72656164792068617320616e206f75747374616e6460008201527f696e67206c6f616e210000000000000000000000000000000000000000000000602082015250565b613b86816134e5565b8114613b9157600080fd5b50565b613b9d816134f7565b8114613ba857600080fd5b50565b613bb481613503565b8114613bbf57600080fd5b50565b613bcb8161352f565b8114613bd657600080fd5b50565b613be28161355d565b8114613bed57600080fd5b5056fea2646970667358221220d47469fa7738801ee90faa48a53e192dc9873d5a2c8eacb8d8064113907474fe64736f6c63430008040033",
  "immutableReferences": {},
  "source": "// SPDX-License-Identifier: MIT\npragma solidity ^0.8.4;\n\nimport \"@openzeppelin/contracts/token/ERC721/extensions/ERC721Enumerable.sol\";\nimport \"@openzeppelin/contracts/utils/Counters.sol\";\nimport \"@openzeppelin/contracts/access/Ownable.sol\";\nimport \"hardhat/console.sol\";\n\ncontract LoanNFT is ERC721Enumerable, Ownable {\n    using Counters for Counters.Counter;\n    Counters.Counter private _tokenIdCounter;\n\n    struct Loan {\n        uint16 amount;\n        uint16 outstandingBalance;\n        uint256 startDate; // Timestamp for the start date of the loan\n        uint256 endDate;   // Timestamp for the repayment date of the loan\n    }\n\n    mapping(uint256 => Loan) public loans;\n    mapping(address => uint256) public outstandingBorrowerLoans;\n    uint16 public maxLoanAmount = 10000;\n\n    constructor() ERC721(\"LoanNFT\", \"LNFT\") {}\n\n    function borrowerHasLoan(address borrower) public view returns (bool) {\n        return outstandingBorrowerLoans[borrower] != 0;\n    }\n\n    function setMaxLoanAmount(uint16 amount) public onlyOwner {\n        require(amount > 0, \"Amount should be greater than 0\");\n        maxLoanAmount = amount;\n    }\n\n    function mintLoan(address borrowerAddress, uint16 amount) public onlyOwner returns (uint256) {\n        console.log(\"attempting to mint loan\");\n        require(amount > 0, \"Amount should be greater than 0\");\n        require(amount <= maxLoanAmount, \"Loan amount exceeds max loan amount.\");\n        require(!borrowerHasLoan(borrowerAddress), \"Borrower already has an outstanding loan!\");\n        _tokenIdCounter.increment();\n\n        uint256 newTokenId = _tokenIdCounter.current();\n        _safeMint(borrowerAddress, newTokenId);\n\n        loans[newTokenId] = Loan({\n            amount: amount,\n            outstandingBalance: amount,\n            startDate: block.timestamp,\n            endDate: 0\n        });\n\n        outstandingBorrowerLoans[borrowerAddress] = newTokenId;\n\n        return newTokenId;\n    }\n\n    function repay(uint256 tokenId, uint16 amount) internal {\n        Loan storage loan = loans[tokenId];\n        require(loan.outstandingBalance > 0, \"Loan is already paid off.\");\n\n        if (loan.outstandingBalance < amount) {\n            amount = loan.outstandingBalance;\n        }\n\n        loan.outstandingBalance -= amount;\n\n        if (loan.outstandingBalance == 0) {\n            loan.endDate = block.timestamp;\n            outstandingBorrowerLoans[ownerOf(tokenId)] = 0;\n            emit LoanRepaid(tokenId, loan.amount);\n        }\n    }\n\n    function repayByBorrower(address borrower, uint16 amount) public onlyOwner {\n        require(borrowerHasLoan(borrower), \"Borrower does not have an outstanding loan!\");\n        repay(outstandingBorrowerLoans[borrower], amount);\n    }\n\n    function getLoanDetails(uint256 tokenId) public view returns (Loan memory) {\n        return loans[tokenId];\n    }\n\n    function transferFrom(address, address, uint256) public override {\n        revert(\"This NFT is non-transferrable\");\n    }\n\n    function safeTransferFrom(address, address, uint256) public override {\n        revert(\"This NFT is non-transferrable\");\n    }\n\n    function approve(address, uint256) public override {\n        revert(\"This NFT is non-transferrable\");\n    }\n\n    function setApprovalForAll(address, bool) public override {\n        revert(\"This NFT is non-transferrable\");\n    }\n\n    event LoanMinted(address indexed to, uint256 tokenId, uint16 amount);\n    event LoanRepaid(uint256 tokenId, uint16 repaidAmount);\n\n}\n",
  "sourcePath": "/Users/mdettmar/Desktop/Projects/loan-tracker/src/backend/ethereum/contracts/LoanNFT.sol",
  "compiler": {
    "name": "solc",
    "version": "0.8.4+commit.c7e474f2.Emscripten.clang"
  },
  "schemaVersion": "3.4.15",
  "updatedAt": "2023-09-07T02:14:00.277Z",
  "networkType": "ethereum",
  "devdoc": {
    "kind": "dev",
    "methods": {
      "balanceOf(address)": {
        "details": "See {IERC721-balanceOf}."
      },
      "getApproved(uint256)": {
        "details": "See {IERC721-getApproved}."
      },
      "isApprovedForAll(address,address)": {
        "details": "See {IERC721-isApprovedForAll}."
      },
      "name()": {
        "details": "See {IERC721Metadata-name}."
      },
      "owner()": {
        "details": "Returns the address of the current owner."
      },
      "ownerOf(uint256)": {
        "details": "See {IERC721-ownerOf}."
      },
      "renounceOwnership()": {
        "details": "Leaves the contract without owner. It will not be possible to call `onlyOwner` functions. Can only be called by the current owner. NOTE: Renouncing ownership will leave the contract without an owner, thereby disabling any functionality that is only available to the owner."
      },
      "safeTransferFrom(address,address,uint256,bytes)": {
        "details": "See {IERC721-safeTransferFrom}."
      },
      "supportsInterface(bytes4)": {
        "details": "See {IERC165-supportsInterface}."
      },
      "symbol()": {
        "details": "See {IERC721Metadata-symbol}."
      },
      "tokenByIndex(uint256)": {
        "details": "See {IERC721Enumerable-tokenByIndex}."
      },
      "tokenOfOwnerByIndex(address,uint256)": {
        "details": "See {IERC721Enumerable-tokenOfOwnerByIndex}."
      },
      "tokenURI(uint256)": {
        "details": "See {IERC721Metadata-tokenURI}."
      },
      "totalSupply()": {
        "details": "See {IERC721Enumerable-totalSupply}."
      },
      "transferOwnership(address)": {
        "details": "Transfers ownership of the contract to a new account (`newOwner`). Can only be called by the current owner."
      }
    },
    "version": 1
  },
  "userdoc": {
    "kind": "user",
    "methods": {},
    "version": 1
  }
}