{
  "contractName": "LoanNFT",
  "abi": [
    {
      "inputs": [],
      "stateMutability": "nonpayable",
      "type": "constructor"
    },
    {
      "anonymous": false,
      "inputs": [
        {
          "indexed": true,
          "internalType": "address",
          "name": "owner",
          "type": "address"
        },
        {
          "indexed": true,
          "internalType": "address",
          "name": "approved",
          "type": "address"
        },
        {
          "indexed": true,
          "internalType": "uint256",
          "name": "tokenId",
          "type": "uint256"
        }
      ],
      "name": "Approval",
      "type": "event"
    },
    {
      "anonymous": false,
      "inputs": [
        {
          "indexed": true,
          "internalType": "address",
          "name": "owner",
          "type": "address"
        },
        {
          "indexed": true,
          "internalType": "address",
          "name": "operator",
          "type": "address"
        },
        {
          "indexed": false,
          "internalType": "bool",
          "name": "approved",
          "type": "bool"
        }
      ],
      "name": "ApprovalForAll",
      "type": "event"
    },
    {
      "anonymous": false,
      "inputs": [
        {
          "indexed": true,
          "internalType": "address",
          "name": "to",
          "type": "address"
        },
        {
          "indexed": false,
          "internalType": "uint256",
          "name": "tokenId",
          "type": "uint256"
        },
        {
          "indexed": false,
          "internalType": "uint16",
          "name": "amount",
          "type": "uint16"
        }
      ],
      "name": "LoanMinted",
      "type": "event"
    },
    {
      "anonymous": false,
      "inputs": [
        {
          "indexed": false,
          "internalType": "uint256",
          "name": "tokenId",
          "type": "uint256"
        },
        {
          "indexed": false,
          "internalType": "uint16",
          "name": "repaidAmount",
          "type": "uint16"
        }
      ],
      "name": "LoanRepaid",
      "type": "event"
    },
    {
      "anonymous": false,
      "inputs": [
        {
          "indexed": true,
          "internalType": "address",
          "name": "previousOwner",
          "type": "address"
        },
        {
          "indexed": true,
          "internalType": "address",
          "name": "newOwner",
          "type": "address"
        }
      ],
      "name": "OwnershipTransferred",
      "type": "event"
    },
    {
      "anonymous": false,
      "inputs": [
        {
          "indexed": true,
          "internalType": "address",
          "name": "from",
          "type": "address"
        },
        {
          "indexed": true,
          "internalType": "address",
          "name": "to",
          "type": "address"
        },
        {
          "indexed": true,
          "internalType": "uint256",
          "name": "tokenId",
          "type": "uint256"
        }
      ],
      "name": "Transfer",
      "type": "event"
    },
    {
      "inputs": [
        {
          "internalType": "address",
          "name": "owner",
          "type": "address"
        }
      ],
      "name": "balanceOf",
      "outputs": [
        {
          "internalType": "uint256",
          "name": "",
          "type": "uint256"
        }
      ],
      "stateMutability": "view",
      "type": "function",
      "constant": true
    },
    {
      "inputs": [
        {
          "internalType": "uint256",
          "name": "tokenId",
          "type": "uint256"
        }
      ],
      "name": "getApproved",
      "outputs": [
        {
          "internalType": "address",
          "name": "",
          "type": "address"
        }
      ],
      "stateMutability": "view",
      "type": "function",
      "constant": true
    },
    {
      "inputs": [
        {
          "internalType": "address",
          "name": "owner",
          "type": "address"
        },
        {
          "internalType": "address",
          "name": "operator",
          "type": "address"
        }
      ],
      "name": "isApprovedForAll",
      "outputs": [
        {
          "internalType": "bool",
          "name": "",
          "type": "bool"
        }
      ],
      "stateMutability": "view",
      "type": "function",
      "constant": true
    },
    {
      "inputs": [
        {
          "internalType": "uint256",
          "name": "",
          "type": "uint256"
        }
      ],
      "name": "loans",
      "outputs": [
        {
          "internalType": "uint16",
          "name": "amount",
          "type": "uint16"
        },
        {
          "internalType": "uint16",
          "name": "outstandingBalance",
          "type": "uint16"
        },
        {
          "internalType": "uint256",
          "name": "startDate",
          "type": "uint256"
        },
        {
          "internalType": "uint256",
          "name": "endDate",
          "type": "uint256"
        }
      ],
      "stateMutability": "view",
      "type": "function",
      "constant": true
    },
    {
      "inputs": [],
      "name": "maxLoanAmount",
      "outputs": [
        {
          "internalType": "uint16",
          "name": "",
          "type": "uint16"
        }
      ],
      "stateMutability": "view",
      "type": "function",
      "constant": true
    },
    {
      "inputs": [],
      "name": "name",
      "outputs": [
        {
          "internalType": "string",
          "name": "",
          "type": "string"
        }
      ],
      "stateMutability": "view",
      "type": "function",
      "constant": true
    },
    {
      "inputs": [
        {
          "internalType": "address",
          "name": "",
          "type": "address"
        }
      ],
      "name": "outstandingBorrowerLoans",
      "outputs": [
        {
          "internalType": "uint256",
          "name": "",
          "type": "uint256"
        }
      ],
      "stateMutability": "view",
      "type": "function",
      "constant": true
    },
    {
      "inputs": [],
      "name": "owner",
      "outputs": [
        {
          "internalType": "address",
          "name": "",
          "type": "address"
        }
      ],
      "stateMutability": "view",
      "type": "function",
      "constant": true
    },
    {
      "inputs": [
        {
          "internalType": "uint256",
          "name": "tokenId",
          "type": "uint256"
        }
      ],
      "name": "ownerOf",
      "outputs": [
        {
          "internalType": "address",
          "name": "",
          "type": "address"
        }
      ],
      "stateMutability": "view",
      "type": "function",
      "constant": true
    },
    {
      "inputs": [],
      "name": "renounceOwnership",
      "outputs": [],
      "stateMutability": "nonpayable",
      "type": "function"
    },
    {
      "inputs": [
        {
          "internalType": "bytes4",
          "name": "interfaceId",
          "type": "bytes4"
        }
      ],
      "name": "supportsInterface",
      "outputs": [
        {
          "internalType": "bool",
          "name": "",
          "type": "bool"
        }
      ],
      "stateMutability": "view",
      "type": "function",
      "constant": true
    },
    {
      "inputs": [],
      "name": "symbol",
      "outputs": [
        {
          "internalType": "string",
          "name": "",
          "type": "string"
        }
      ],
      "stateMutability": "view",
      "type": "function",
      "constant": true
    },
    {
      "inputs": [
        {
          "internalType": "uint256",
          "name": "index",
          "type": "uint256"
        }
      ],
      "name": "tokenByIndex",
      "outputs": [
        {
          "internalType": "uint256",
          "name": "",
          "type": "uint256"
        }
      ],
      "stateMutability": "view",
      "type": "function",
      "constant": true
    },
    {
      "inputs": [
        {
          "internalType": "address",
          "name": "owner",
          "type": "address"
        },
        {
          "internalType": "uint256",
          "name": "index",
          "type": "uint256"
        }
      ],
      "name": "tokenOfOwnerByIndex",
      "outputs": [
        {
          "internalType": "uint256",
          "name": "",
          "type": "uint256"
        }
      ],
      "stateMutability": "view",
      "type": "function",
      "constant": true
    },
    {
      "inputs": [
        {
          "internalType": "uint256",
          "name": "tokenId",
          "type": "uint256"
        }
      ],
      "name": "tokenURI",
      "outputs": [
        {
          "internalType": "string",
          "name": "",
          "type": "string"
        }
      ],
      "stateMutability": "view",
      "type": "function",
      "constant": true
    },
    {
      "inputs": [],
      "name": "totalSupply",
      "outputs": [
        {
          "internalType": "uint256",
          "name": "",
          "type": "uint256"
        }
      ],
      "stateMutability": "view",
      "type": "function",
      "constant": true
    },
    {
      "inputs": [
        {
          "internalType": "address",
          "name": "newOwner",
          "type": "address"
        }
      ],
      "name": "transferOwnership",
      "outputs": [],
      "stateMutability": "nonpayable",
      "type": "function"
    },
    {
      "inputs": [
        {
          "internalType": "address",
          "name": "borrower",
          "type": "address"
        }
      ],
      "name": "borrowerHasLoan",
      "outputs": [
        {
          "internalType": "bool",
          "name": "",
          "type": "bool"
        }
      ],
      "stateMutability": "view",
      "type": "function",
      "constant": true
    },
    {
      "inputs": [
        {
          "internalType": "uint16",
          "name": "amount",
          "type": "uint16"
        }
      ],
      "name": "setMaxLoanAmount",
      "outputs": [],
      "stateMutability": "nonpayable",
      "type": "function"
    },
    {
      "inputs": [
        {
          "internalType": "address",
          "name": "borrowerAddress",
          "type": "address"
        },
        {
          "internalType": "uint16",
          "name": "amount",
          "type": "uint16"
        }
      ],
      "name": "mintLoan",
      "outputs": [
        {
          "internalType": "uint256",
          "name": "",
          "type": "uint256"
        }
      ],
      "stateMutability": "nonpayable",
      "type": "function"
    },
    {
      "inputs": [
        {
          "internalType": "address",
          "name": "borrower",
          "type": "address"
        },
        {
          "internalType": "uint16",
          "name": "amount",
          "type": "uint16"
        }
      ],
      "name": "repayByBorrower",
      "outputs": [],
      "stateMutability": "nonpayable",
      "type": "function"
    },
    {
      "inputs": [
        {
          "internalType": "uint256",
          "name": "tokenId",
          "type": "uint256"
        }
      ],
      "name": "getLoanDetails",
      "outputs": [
        {
          "components": [
            {
              "internalType": "uint16",
              "name": "amount",
              "type": "uint16"
            },
            {
              "internalType": "uint16",
              "name": "outstandingBalance",
              "type": "uint16"
            },
            {
              "internalType": "uint256",
              "name": "startDate",
              "type": "uint256"
            },
            {
              "internalType": "uint256",
              "name": "endDate",
              "type": "uint256"
            }
          ],
          "internalType": "struct LoanNFT.Loan",
          "name": "",
          "type": "tuple"
        }
      ],
      "stateMutability": "view",
      "type": "function",
      "constant": true
    },
    {
      "inputs": [
        {
          "internalType": "address",
          "name": "",
          "type": "address"
        },
        {
          "internalType": "address",
          "name": "",
          "type": "address"
        },
        {
          "internalType": "uint256",
          "name": "",
          "type": "uint256"
        }
      ],
      "name": "transferFrom",
      "outputs": [],
      "stateMutability": "nonpayable",
      "type": "function"
    },
    {
      "inputs": [
        {
          "internalType": "address",
          "name": "",
          "type": "address"
        },
        {
          "internalType": "address",
          "name": "",
          "type": "address"
        },
        {
          "internalType": "uint256",
          "name": "",
          "type": "uint256"
        }
      ],
      "name": "safeTransferFrom",
      "outputs": [],
      "stateMutability": "nonpayable",
      "type": "function"
    },
    {
      "inputs": [
        {
          "internalType": "address",
          "name": "from",
          "type": "address"
        },
        {
          "internalType": "address",
          "name": "to",
          "type": "address"
        },
        {
          "internalType": "uint256",
          "name": "tokenId",
          "type": "uint256"
        },
        {
          "internalType": "bytes",
          "name": "data",
          "type": "bytes"
        }
      ],
      "name": "safeTransferFrom",
      "outputs": [],
      "stateMutability": "nonpayable",
      "type": "function"
    },
    {
      "inputs": [
        {
          "internalType": "address",
          "name": "",
          "type": "address"
        },
        {
          "internalType": "uint256",
          "name": "",
          "type": "uint256"
        }
      ],
      "name": "approve",
      "outputs": [],
      "stateMutability": "nonpayable",
      "type": "function"
    },
    {
      "inputs": [
        {
          "internalType": "address",
          "name": "",
          "type": "address"
        },
        {
          "internalType": "bool",
          "name": "",
          "type": "bool"
        }
      ],
      "name": "setApprovalForAll",
      "outputs": [],
      "stateMutability": "nonpayable",
      "type": "function"
    }
  ],
  "bytecode": "0x6080604052600e805461ffff19166127101790553480156200002057600080fd5b5060405180604001604052806007815260200166131bd85b93919560ca1b815250604051806040016040528060048152602001631313919560e21b81525081600090816200006f91906200019c565b5060016200007e82826200019c565b5050506200009b62000095620000a160201b60201c565b620000a5565b62000268565b3390565b600a80546001600160a01b038381166001600160a01b0319831681179093556040519116919082907f8be0079c531659141344cd1fd0a4f28419497f9722a3daafe3b4186f6b6457e090600090a35050565b634e487b7160e01b600052604160045260246000fd5b600181811c908216806200012257607f821691505b6020821081036200014357634e487b7160e01b600052602260045260246000fd5b50919050565b601f8211156200019757600081815260208120601f850160051c81016020861015620001725750805b601f850160051c820191505b8181101562000193578281556001016200017e565b5050505b505050565b81516001600160401b03811115620001b857620001b8620000f7565b620001d081620001c984546200010d565b8462000149565b602080601f831160018114620002085760008415620001ef5750858301515b600019600386901b1c1916600185901b17855562000193565b600085815260208120601f198616915b82811015620002395788860151825594840194600190910190840162000218565b5085821015620002585787850151600019600388901b60f8161c191681555b5050505050600190811b01905550565b611dba80620002786000396000f3fe608060405234801561001057600080fd5b50600436106101a95760003560e01c806370a08231116100f9578063a22cb46511610097578063c87b56dd11610071578063c87b56dd14610438578063e1ec3c681461044b578063e985e9c5146104ae578063f2fde38b146104ea57600080fd5b8063a22cb465146103f7578063b88d4fde14610405578063c434f1081461041857600080fd5b80638da5cb5b116100d35780638da5cb5b146103b8578063906e52de146103c95780639284cd4f146103dc57806395d89b41146103ef57600080fd5b806370a082311461037c578063715018a61461038f57806372f943651461039757600080fd5b80632f745c59116101665780634f6ccce7116101405780634f6ccce7146102715780636352211e1461028457806366877b8d146102975780636f8774381461035157600080fd5b80632f745c591461024b57806342842e0e1461023d5780634b996dea1461025e57600080fd5b806301ffc9a7146101ae57806306fdde03146101d6578063081812fc146101eb578063095ea7b31461021657806318160ddd1461022b57806323b872dd1461023d575b600080fd5b6101c16101bc3660046118c5565b6104fd565b60405190151581526020015b60405180910390f35b6101de610528565b6040516101cd9190611932565b6101fe6101f9366004611945565b6105ba565b6040516001600160a01b0390911681526020016101cd565b61022961022436600461197a565b6105e1565b005b6008545b6040519081526020016101cd565b6102296102243660046119a4565b61022f61025936600461197a565b61062e565b61022961026c3660046119f2565b6106c4565b61022f61027f366004611945565b61076c565b6101fe610292366004611945565b6107ff565b6103116102a5366004611945565b6040805160808082018352600080835260208084018290528385018290526060938401829052948152600c855283902083519182018452805461ffff80821684526201000090910416948201949094526001840154928101929092526002909201549181019190915290565b6040516101cd9190600060808201905061ffff80845116835280602085015116602084015250604083015160408301526060830151606083015292915050565b6101c161035f366004611a25565b6001600160a01b03166000908152600d6020526040902054151590565b61022f61038a366004611a25565b61085f565b6102296108e5565b600e546103a59061ffff1681565b60405161ffff90911681526020016101cd565b600a546001600160a01b03166101fe565b61022f6103d73660046119f2565b6108f9565b6102296103ea366004611a40565b610ade565b6101de610b52565b610229610224366004611a5b565b610229610413366004611aad565b610b61565b61022f610426366004611a25565b600d6020526000908152604090205481565b6101de610446366004611945565b610bdf565b610488610459366004611945565b600c6020526000908152604090208054600182015460029092015461ffff808316936201000090930416919084565b6040805161ffff95861681529490931660208501529183015260608201526080016101cd565b6101c16104bc366004611b89565b6001600160a01b03918216600090815260056020908152604080832093909416825291909152205460ff1690565b6102296104f8366004611a25565b610c53565b60006001600160e01b0319821663780e9d6360e01b1480610522575061052282610ccc565b92915050565b60606000805461053790611bb3565b80601f016020809104026020016040519081016040528092919081815260200182805461056390611bb3565b80156105b05780601f10610585576101008083540402835291602001916105b0565b820191906000526020600020905b81548152906001019060200180831161059357829003601f168201915b5050505050905090565b60006105c582610d1c565b506000908152600460205260409020546001600160a01b031690565b60405162461bcd60e51b815260206004820152601d60248201527f54686973204e4654206973206e6f6e2d7472616e736665727261626c6500000060448201526064015b60405180910390fd5b60006106398361085f565b821061069b5760405162461bcd60e51b815260206004820152602b60248201527f455243373231456e756d657261626c653a206f776e657220696e646578206f7560448201526a74206f6620626f756e647360a81b6064820152608401610625565b506001600160a01b03919091166000908152600660209081526040808320938352929052205490565b6106cc610d7b565b6001600160a01b0382166000908152600d60205260409020546107455760405162461bcd60e51b815260206004820152602b60248201527f426f72726f77657220646f6573206e6f74206861766520616e206f757473746160448201526a6e64696e67206c6f616e2160a81b6064820152608401610625565b6001600160a01b0382166000908152600d60205260409020546107689082610dd5565b5050565b600061077760085490565b82106107da5760405162461bcd60e51b815260206004820152602c60248201527f455243373231456e756d657261626c653a20676c6f62616c20696e646578206f60448201526b7574206f6620626f756e647360a01b6064820152608401610625565b600882815481106107ed576107ed611bed565b90600052602060002001549050919050565b6000818152600260205260408120546001600160a01b0316806105225760405162461bcd60e51b8152602060048201526018602482015277115490cdcc8c4e881a5b9d985b1a59081d1bdad95b88125160421b6044820152606401610625565b60006001600160a01b0382166108c95760405162461bcd60e51b815260206004820152602960248201527f4552433732313a2061646472657373207a65726f206973206e6f7420612076616044820152683634b21037bbb732b960b91b6064820152608401610625565b506001600160a01b031660009081526003602052604090205490565b6108ed610d7b565b6108f76000610f24565b565b6000610903610d7b565b60008261ffff16116109575760405162461bcd60e51b815260206004820152601f60248201527f416d6f756e742073686f756c642062652067726561746572207468616e2030006044820152606401610625565b600e5461ffff90811690831611156109bd5760405162461bcd60e51b8152602060048201526024808201527f4c6f616e20616d6f756e742065786365656473206d6178206c6f616e20616d6f6044820152633ab73a1760e11b6064820152608401610625565b6001600160a01b0383166000908152600d602052604090205415610a355760405162461bcd60e51b815260206004820152602960248201527f426f72726f77657220616c72656164792068617320616e206f75747374616e64604482015268696e67206c6f616e2160b81b6064820152608401610625565b610a43600b80546001019055565b6000610a4e600b5490565b9050610a5a8482610f76565b6040805160808101825261ffff808616808352602080840191825242848601908152600060608601818152888252600c84528782209651875495518716620100000263ffffffff1990961696169590951793909317855551600185015591516002909301929092556001600160a01b0387168252600d905220819055905092915050565b610ae6610d7b565b60008161ffff1611610b3a5760405162461bcd60e51b815260206004820152601f60248201527f416d6f756e742073686f756c642062652067726561746572207468616e2030006044820152606401610625565b600e805461ffff191661ffff92909216919091179055565b60606001805461053790611bb3565b610b6b3383610f90565b610bcd5760405162461bcd60e51b815260206004820152602d60248201527f4552433732313a2063616c6c6572206973206e6f7420746f6b656e206f776e6560448201526c1c881bdc88185c1c1c9bdd9959609a1b6064820152608401610625565b610bd98484848461100f565b50505050565b6060610bea82610d1c565b6000610c0160408051602081019091526000815290565b90506000815111610c215760405180602001604052806000815250610c4c565b80610c2b84611042565b604051602001610c3c929190611c03565b6040516020818303038152906040525b9392505050565b610c5b610d7b565b6001600160a01b038116610cc05760405162461bcd60e51b815260206004820152602660248201527f4f776e61626c653a206e6577206f776e657220697320746865207a65726f206160448201526564647265737360d01b6064820152608401610625565b610cc981610f24565b50565b60006001600160e01b031982166380ac58cd60e01b1480610cfd57506001600160e01b03198216635b5e139f60e01b145b8061052257506301ffc9a760e01b6001600160e01b0319831614610522565b6000818152600260205260409020546001600160a01b0316610cc95760405162461bcd60e51b8152602060048201526018602482015277115490cdcc8c4e881a5b9d985b1a59081d1bdad95b88125160421b6044820152606401610625565b600a546001600160a01b031633146108f75760405162461bcd60e51b815260206004820181905260248201527f4f776e61626c653a2063616c6c6572206973206e6f7420746865206f776e65726044820152606401610625565b6000828152600c60205260409020805462010000900461ffff16610e3b5760405162461bcd60e51b815260206004820152601960248201527f4c6f616e20697320616c72656164792070616964206f66662e000000000000006044820152606401610625565b805461ffff80841662010000909204161015610e6057805462010000900461ffff1691505b805482908290600290610e7e90849062010000900461ffff16611c48565b82546101009290920a61ffff8181021990931691831602179091558254620100009004166000039050610f1f574260028201556000600d81610ebf866107ff565b6001600160a01b031681526020808201929092526040908101600020929092558254825186815261ffff909116918101919091527fd8347dfcdb4ad4b065b57dbe6c0aa70f7760ce003064e45be4c6dde95722edba910160405180910390a15b505050565b600a80546001600160a01b038381166001600160a01b0319831681179093556040519116919082907f8be0079c531659141344cd1fd0a4f28419497f9722a3daafe3b4186f6b6457e090600090a35050565b6107688282604051806020016040528060008152506110d5565b600080610f9c836107ff565b9050806001600160a01b0316846001600160a01b03161480610fe357506001600160a01b0380821660009081526005602090815260408083209388168352929052205460ff165b806110075750836001600160a01b0316610ffc846105ba565b6001600160a01b0316145b949350505050565b61101a848484611108565b61102684848484611279565b610bd95760405162461bcd60e51b815260040161062590611c6a565b6060600061104f8361137a565b600101905060008167ffffffffffffffff81111561106f5761106f611a97565b6040519080825280601f01601f191660200182016040528015611099576020820181803683370190505b5090508181016020015b600019016f181899199a1a9b1b9c1cb0b131b232b360811b600a86061a8153600a85049450846110a357509392505050565b6110df8383611452565b6110ec6000848484611279565b610f1f5760405162461bcd60e51b815260040161062590611c6a565b826001600160a01b031661111b826107ff565b6001600160a01b0316146111415760405162461bcd60e51b815260040161062590611cbc565b6001600160a01b0382166111a35760405162461bcd60e51b8152602060048201526024808201527f4552433732313a207472616e7366657220746f20746865207a65726f206164646044820152637265737360e01b6064820152608401610625565b6111b083838360016115eb565b826001600160a01b03166111c3826107ff565b6001600160a01b0316146111e95760405162461bcd60e51b815260040161062590611cbc565b600081815260046020908152604080832080546001600160a01b03199081169091556001600160a01b0387811680865260038552838620805460001901905590871680865283862080546001019055868652600290945282852080549092168417909155905184937fddf252ad1be2c89b69c2b068fc378daa952ba7f163c4a11628f55a4df523b3ef91a4505050565b60006001600160a01b0384163b1561136f57604051630a85bd0160e11b81526001600160a01b0385169063150b7a02906112bd903390899088908890600401611d01565b6020604051808303816000875af19250505080156112f8575060408051601f3d908101601f191682019092526112f591810190611d3e565b60015b611355573d808015611326576040519150601f19603f3d011682016040523d82523d6000602084013e61132b565b606091505b50805160000361134d5760405162461bcd60e51b815260040161062590611c6a565b805181602001fd5b6001600160e01b031916630a85bd0160e11b149050611007565b506001949350505050565b60008072184f03e93ff9f4daa797ed6e38ed64bf6a1f0160401b83106113b95772184f03e93ff9f4daa797ed6e38ed64bf6a1f0160401b830492506040015b6d04ee2d6d415b85acef810000000083106113e5576d04ee2d6d415b85acef8100000000830492506020015b662386f26fc10000831061140357662386f26fc10000830492506010015b6305f5e100831061141b576305f5e100830492506008015b612710831061142f57612710830492506004015b60648310611441576064830492506002015b600a83106105225760010192915050565b6001600160a01b0382166114a85760405162461bcd60e51b815260206004820181905260248201527f4552433732313a206d696e7420746f20746865207a65726f20616464726573736044820152606401610625565b6000818152600260205260409020546001600160a01b03161561150d5760405162461bcd60e51b815260206004820152601c60248201527f4552433732313a20746f6b656e20616c7265616479206d696e746564000000006044820152606401610625565b61151b6000838360016115eb565b6000818152600260205260409020546001600160a01b0316156115805760405162461bcd60e51b815260206004820152601c60248201527f4552433732313a20746f6b656e20616c7265616479206d696e746564000000006044820152606401610625565b6001600160a01b038216600081815260036020908152604080832080546001019055848352600290915280822080546001600160a01b0319168417905551839291907fddf252ad1be2c89b69c2b068fc378daa952ba7f163c4a11628f55a4df523b3ef908290a45050565b600181111561165a5760405162461bcd60e51b815260206004820152603560248201527f455243373231456e756d657261626c653a20636f6e7365637574697665207472604482015274185b9cd9995c9cc81b9bdd081cdd5c1c1bdc9d1959605a1b6064820152608401610625565b816001600160a01b0385166116b6576116b181600880546000838152600960205260408120829055600182018355919091527ff3f7a9fe364faab93b216da50a3214154f22a0a2b415b23a84c8169e8b636ee30155565b6116d9565b836001600160a01b0316856001600160a01b0316146116d9576116d9858261171f565b6001600160a01b0384166116f5576116f0816117bc565b611718565b846001600160a01b0316846001600160a01b03161461171857611718848261186b565b5050505050565b6000600161172c8461085f565b6117369190611d5b565b600083815260076020526040902054909150808214611789576001600160a01b03841660009081526006602090815260408083208584528252808320548484528184208190558352600790915290208190555b5060009182526007602090815260408084208490556001600160a01b039094168352600681528383209183525290812055565b6008546000906117ce90600190611d5b565b600083815260096020526040812054600880549394509092849081106117f6576117f6611bed565b90600052602060002001549050806008838154811061181757611817611bed565b600091825260208083209091019290925582815260099091526040808220849055858252812055600880548061184f5761184f611d6e565b6001900381819060005260206000200160009055905550505050565b60006118768361085f565b6001600160a01b039093166000908152600660209081526040808320868452825280832085905593825260079052919091209190915550565b6001600160e01b031981168114610cc957600080fd5b6000602082840312156118d757600080fd5b8135610c4c816118af565b60005b838110156118fd5781810151838201526020016118e5565b50506000910152565b6000815180845261191e8160208601602086016118e2565b601f01601f19169290920160200192915050565b602081526000610c4c6020830184611906565b60006020828403121561195757600080fd5b5035919050565b80356001600160a01b038116811461197557600080fd5b919050565b6000806040838503121561198d57600080fd5b6119968361195e565b946020939093013593505050565b6000806000606084860312156119b957600080fd5b6119c28461195e565b92506119d06020850161195e565b9150604084013590509250925092565b803561ffff8116811461197557600080fd5b60008060408385031215611a0557600080fd5b611a0e8361195e565b9150611a1c602084016119e0565b90509250929050565b600060208284031215611a3757600080fd5b610c4c8261195e565b600060208284031215611a5257600080fd5b610c4c826119e0565b60008060408385031215611a6e57600080fd5b611a778361195e565b915060208301358015158114611a8c57600080fd5b809150509250929050565b634e487b7160e01b600052604160045260246000fd5b60008060008060808587031215611ac357600080fd5b611acc8561195e565b9350611ada6020860161195e565b925060408501359150606085013567ffffffffffffffff80821115611afe57600080fd5b818701915087601f830112611b1257600080fd5b813581811115611b2457611b24611a97565b604051601f8201601f19908116603f01168101908382118183101715611b4c57611b4c611a97565b816040528281528a6020848701011115611b6557600080fd5b82602086016020830137600060208483010152809550505050505092959194509250565b60008060408385031215611b9c57600080fd5b611ba58361195e565b9150611a1c6020840161195e565b600181811c90821680611bc757607f821691505b602082108103611be757634e487b7160e01b600052602260045260246000fd5b50919050565b634e487b7160e01b600052603260045260246000fd5b60008351611c158184602088016118e2565b835190830190611c298183602088016118e2565b01949350505050565b634e487b7160e01b600052601160045260246000fd5b61ffff828116828216039080821115611c6357611c63611c32565b5092915050565b60208082526032908201527f4552433732313a207472616e7366657220746f206e6f6e20455243373231526560408201527131b2b4bb32b91034b6b83632b6b2b73a32b960711b606082015260800190565b60208082526025908201527f4552433732313a207472616e736665722066726f6d20696e636f72726563742060408201526437bbb732b960d91b606082015260800190565b6001600160a01b0385811682528416602082015260408101839052608060608201819052600090611d3490830184611906565b9695505050505050565b600060208284031215611d5057600080fd5b8151610c4c816118af565b8181038181111561052257610522611c32565b634e487b7160e01b600052603160045260246000fdfea26469706673582212207a5f25bddcb9acb6e1612c216a7ccdab6bd4b1902b4843c3cc70b84eda1282b664736f6c63430008120033",
  "immutableReferences": {},
  "source": "// SPDX-License-Identifier: MIT\npragma solidity ^0.8.4;\n\nimport \"@openzeppelin/contracts/token/ERC721/extensions/ERC721Enumerable.sol\";\nimport \"@openzeppelin/contracts/utils/Counters.sol\";\nimport \"@openzeppelin/contracts/access/Ownable.sol\";\n\ncontract LoanNFT is ERC721Enumerable, Ownable {\n    using Counters for Counters.Counter;\n    Counters.Counter private _tokenIdCounter;\n\n    struct Loan {\n        uint16 amount;\n        uint16 outstandingBalance;\n        uint256 startDate; // Timestamp for the start date of the loan\n        uint256 endDate;   // Timestamp for the repayment date of the loan\n    }\n\n    mapping(uint256 => Loan) public loans;\n    mapping(address => uint256) public outstandingBorrowerLoans;\n    uint16 public maxLoanAmount = 10000;\n\n    constructor() ERC721(\"LoanNFT\", \"LNFT\") {}\n\n    function borrowerHasLoan(address borrower) public view returns (bool) {\n        return outstandingBorrowerLoans[borrower] != 0;\n    }\n\n    function setMaxLoanAmount(uint16 amount) public onlyOwner {\n        require(amount > 0, \"Amount should be greater than 0\");\n        maxLoanAmount = amount;\n    }\n\n    function mintLoan(address borrowerAddress, uint16 amount) public onlyOwner returns (uint256) {\n        require(amount > 0, \"Amount should be greater than 0\");\n        require(amount <= maxLoanAmount, \"Loan amount exceeds max loan amount.\");\n        require(!borrowerHasLoan(borrowerAddress), \"Borrower already has an outstanding loan!\");\n        _tokenIdCounter.increment();\n\n        uint256 newTokenId = _tokenIdCounter.current();\n        _safeMint(borrowerAddress, newTokenId);\n\n        loans[newTokenId] = Loan({\n            amount: amount,\n            outstandingBalance: amount,\n            startDate: block.timestamp,\n            endDate: 0\n        });\n\n        outstandingBorrowerLoans[borrowerAddress] = newTokenId;\n\n        return newTokenId;\n    }\n\n    function repay(uint256 tokenId, uint16 amount) internal {\n        Loan storage loan = loans[tokenId];\n        require(loan.outstandingBalance > 0, \"Loan is already paid off.\");\n\n        if (loan.outstandingBalance < amount) {\n            amount = loan.outstandingBalance;\n        }\n\n        loan.outstandingBalance -= amount;\n\n        if (loan.outstandingBalance == 0) {\n            loan.endDate = block.timestamp;\n            outstandingBorrowerLoans[ownerOf(tokenId)] = 0;\n            emit LoanRepaid(tokenId, loan.amount);\n        }\n    }\n\n    function repayByBorrower(address borrower, uint16 amount) public onlyOwner {\n        require(borrowerHasLoan(borrower), \"Borrower does not have an outstanding loan!\");\n        repay(outstandingBorrowerLoans[borrower], amount);\n    }\n\n    function getLoanDetails(uint256 tokenId) public view returns (Loan memory) {\n        return loans[tokenId];\n    }\n\n    function transferFrom(address, address, uint256) public override(ERC721, IERC721) {\n        revert(\"This NFT is non-transferrable\");\n    }\n\n    function safeTransferFrom(address, address, uint256) public override(ERC721, IERC721) {\n        revert(\"This NFT is non-transferrable\");\n    }\n\n    function approve(address, uint256) public override(ERC721, IERC721) {\n        revert(\"This NFT is non-transferrable\");\n    }\n\n    function setApprovalForAll(address, bool) public override(ERC721, IERC721) {\n        revert(\"This NFT is non-transferrable\");\n    }\n\n    event LoanMinted(address indexed to, uint256 tokenId, uint16 amount);\n    event LoanRepaid(uint256 tokenId, uint16 repaidAmount);\n\n}\n",
  "sourcePath": "/Users/mdettmar/Desktop/Projects/loan-tracker/src/backend/ethereum/contracts/LoanNFT.sol",
  "compiler": {
    "name": "solc",
    "version": "0.8.18+commit.87f61d96.Emscripten.clang"
  },
  "schemaVersion": "3.4.15",
  "updatedAt": "2023-09-09T22:49:49.261Z",
  "networkType": "ethereum",
  "devdoc": {
    "events": {
      "Approval(address,address,uint256)": {
        "details": "Emitted when `owner` enables `approved` to manage the `tokenId` token."
      },
      "ApprovalForAll(address,address,bool)": {
        "details": "Emitted when `owner` enables or disables (`approved`) `operator` to manage all of its assets."
      },
      "Transfer(address,address,uint256)": {
        "details": "Emitted when `tokenId` token is transferred from `from` to `to`."
      }
    },
    "kind": "dev",
    "methods": {
      "balanceOf(address)": {
        "details": "See {IERC721-balanceOf}."
      },
      "getApproved(uint256)": {
        "details": "See {IERC721-getApproved}."
      },
      "isApprovedForAll(address,address)": {
        "details": "See {IERC721-isApprovedForAll}."
      },
      "name()": {
        "details": "See {IERC721Metadata-name}."
      },
      "owner()": {
        "details": "Returns the address of the current owner."
      },
      "ownerOf(uint256)": {
        "details": "See {IERC721-ownerOf}."
      },
      "renounceOwnership()": {
        "details": "Leaves the contract without owner. It will not be possible to call `onlyOwner` functions. Can only be called by the current owner. NOTE: Renouncing ownership will leave the contract without an owner, thereby disabling any functionality that is only available to the owner."
      },
      "safeTransferFrom(address,address,uint256,bytes)": {
        "details": "See {IERC721-safeTransferFrom}."
      },
      "supportsInterface(bytes4)": {
        "details": "See {IERC165-supportsInterface}."
      },
      "symbol()": {
        "details": "See {IERC721Metadata-symbol}."
      },
      "tokenByIndex(uint256)": {
        "details": "See {IERC721Enumerable-tokenByIndex}."
      },
      "tokenOfOwnerByIndex(address,uint256)": {
        "details": "See {IERC721Enumerable-tokenOfOwnerByIndex}."
      },
      "tokenURI(uint256)": {
        "details": "See {IERC721Metadata-tokenURI}."
      },
      "totalSupply()": {
        "details": "See {IERC721Enumerable-totalSupply}."
      },
      "transferOwnership(address)": {
        "details": "Transfers ownership of the contract to a new account (`newOwner`). Can only be called by the current owner."
      }
    },
    "version": 1
  },
  "userdoc": {
    "kind": "user",
    "methods": {},
    "version": 1
  }
}